:1000000001308A00F5290000FF00030E8301A100E2
:100010000A08A0008A010408A2007708A300780853
:10002000A4007908A5007A08A600831383128C30F7
:100030008400001C1D280C182E2822088400230888
:10004000F7002408F8002508F9002608FA0020081F
:100050008A00210E8300FF0E7F0E09008A110A120A
:100060003128AE0A2E08093C03183828AE01AA0A26
:100070002A083C3C031D3E28AA01A90A29083C3C49
:10008000031D4428A901A80A2808183C0319A8013F
:1000900028082B02031D522829082C02031D522870
:1000A0008516532885120C108A110A121D28323029
:1000B00084008313000803196B280130F800F7014E
:1000C000F70B6028F80B5F284A30F700F70B66281B
:1000D0006928800B5D280800B1013108093C031C28
:1000E0007C28061C7C28861C7C28061D7C28B10ADE
:1000F0001930B20057206D280800320833068039C5
:10010000B500B21F8528B209B20AB31F8928B30906
:10011000B30A3308F8013202031891283208F700B5
:100120009D28F7010830B400B20DF70D33087702AF
:100130000318F700F80DB40B9428B51FA128F8098F
:10014000F80A08000619BA28AF0AA708031DAE2846
:10015000AF1BAE282F08173C031CAF01270BB62896
:10016000AF1BB6282F083B3C031CAF01C830B200C0
:100170005720A2288619CE28AF03A708031DC4283C
:10018000AF1FC4281730AF00270BCA28AF1FCA28DB
:100190003B30AF00C830B2005720BA28A708031D73
:1001A000E328B008031DDA280530890006168612F8
:1001B00006178613300BE2280630890006128616D1
:1001C00006138617EE28270BEE28B008031DEA2831
:1001D000DD308700300BEE28AA3087006C203230EB
:1001E000B2005720A708031D25292F08B2000A30A6
:1001F000B3007D207718FE280612FF2806162F0868
:10020000B2000A30B3007D20F718082986120929A8
:1002100086162F08B2000A30B3007D207719122904
:100220000613132906172F08B2000A30B3007D20E9
:10023000F7191C2986131D2986172F08B2000A30CA
:10024000B3007D20780889003929270B39292F0828
:10025000B2000A30B3007D20780EB100F030B10555
:100260002F08B2000A30B3007D207708B1073108AB
:1002700087006C203230B200572086184829861C2F
:100280003F29A70AFA012F08F8007A08F90049293E
:10029000A22808003308F801320203185229320854
:1002A000F7005E29F7010830B400B20DF70D3308EE
:1002B00077020318F700F80DB40B55290800AD08B4
:1002C000031DBA292E08B2000A30B3004A21780E65
:1002D000B100F030B1052E08B2000A30B3004A2157
:1002E0007708B107310885002A08B2000A30B30048
:1002F0004A21780EB100F030B1052A08B2000A3068
:10030000B3004A217708B107310888002908B200F4
:100310000A30B3004A21780EB100F030B105290847
:10032000B2000A30B3004A217708B10731088700CC
:100330002808B2000A30B3004A217708AF002F180E
:10034000A3290612A4290616AF18A8298612A929DE
:1003500086162F19AD290613AE290617AF19B22933
:100360008613B32986172808B2000A30B3004A2141
:10037000780889002D0BF229850188012C08B2002C
:100380000A30B3004A21780EB100F030B1052C08D4
:10039000B2000A30B3004A217708B107310887005C
:1003A0002B08B2000A30B3004A217708B000301899
:1003B000DB290612DC290616B018E0298612E1298D
:1003C00086163019E5290613E6290617B019EA2919
:1003D0008613EB2986172B08B2000A30B3004A2196
:1003E000780889008A110A12832AA7011730A80009
:1003F0003930A9003230AA001730AB003A30AC00D7
:10040000AD01AE01831603170908C0398900031333
:100410001F129F1200300317880083128701880182
:10042000890183131F30830583160908C0398900A9
:1004300003131F129F120030031788008312031347
:100440001F100F30831695008113003085000F3088
:100450008600003087008800091089100911891171
:1004600064308312B2005720153090008E018F0146
:10047000B0308E0083160C14C03083128B046430AD
:10048000B200572006184C2AAD08031D4C2A061C42
:10049000472A0130AD00822A0618552A2D0B552A0D
:1004A000061C502A0230AD00822A2D08023C031D92
:1004B000822A83160C1083129001A7012808AF002E
:1004C000B001A2207808A8002908AF00B001A2203E
:1004D0007808A900A7012B08AF000130B000A220C6
:1004E0007808AB002C08AF000130B000A2207808DB
:1004F000AC00C830B20057200130900083160C14B5
:100500008312AD015F293230B2005720422A6300C6
:04400E00F22CFF3F52
:00000001FF
;PIC16F887
;CRC=05D9  CREATED="20-May-20 04:53"
